:020000040800F2
:10000000B8060020890100084F0D0008D50C000833
:100010004D0D00088F0200086D0F00080000000061
:10002000000000000000000000000000530D000868
:100030009102000800000000510D0008550D000855
:10004000A3010008A3010008A3010008A301000800
:10005000A3010008A3010008A3010008A3010008F0
:10006000A3010008A3010008A3010008A3010008E0
:10007000A3010008A3010008A3010008A3010008D0
:10008000A3010008A3010008A3010008A3010008C0
:10009000A3010008A3010008A3010008A3010008B0
:1000A000A3010008A3010008A3010008A3010008A0
:1000B000A3010008A301000800000000A30100083C
:1000C000A30100080000000000000000A3010008D8
:1000D00000000000A3010008A301000800000000C8
:1000E000A3010008A3010008A301000800F002F822
:1000F00000F03AF80AA090E8000C82448344AAF188
:100100000107DA4501D100F02FF8AFF2090EBAE885
:100110000F0013F0010F18BFFB1A43F0010318473B
:10012000B40E0000D40E0000103A24BF78C878C185
:10013000FAD8520724BF30C830C144BF04680C60ED
:10014000704700000023002400250026103A28BF35
:1001500078C1FBD8520728BF30C148BF0B60704739
:100160001FB51FBD10B510BD00F058F81146FFF7C0
:10017000F7FF00F00DFF00F076F803B4FFF7F2FF91
:1001800003BC00F07DF8000009488047094800479B
:10019000FEE7FEE7FEE7FEE7FEE7FEE7FEE7FEE737
:1001A000FEE7FEE704480549054A064B7047000094
:1001B000AF0D0008ED000008B8000020B8060020D0
:1001C000B8020020B80200204FF0000200B513462C
:1001D00094469646203922BFA0E80C50A0E80C5067
:1001E000B1F12001BFF4F7AF090728BFA0E80C5018
:1001F00048BF0CC05DF804EB890028BF40F8042B11
:1002000008BF704748BF20F8022B11F0804F18BF7D
:1002100000F8012B7047704770477047754600F033
:100220002BF8AE4605006946534620F00700854688
:1002300018B020B5FFF7B6FFBDE820404FF000062C
:100240004FF000074FF000084FF0000B21F00701BE
:10025000AC46ACE8C009ACE8C009ACE8C009ACE801
:10026000C0098D46704710B50446AFF300802046A4
:10027000BDE81040FFF781BF0048704758000020DC
:1002800001491820ABBEFEE7260002007047FEE7DA
:10029000704700002DE9F84FDFF89C91002409F128
:1002A000040A0AF1040B23460F270BF1040EBBE0EE
:1002B0000125A5402A40AA4276D1DFF880C14E68C8
:1002C000A6EB0C0866452BD00DDC032E34D005DCE4
:1002D00036B3012E19D0022E2FD11BE0112E16D0CD
:1002E000122E2AD119E0B8F5881F19D006DCB8F50E
:1002F000803F15D0B8F5801F1FD111E0B8F5001F61
:100300000ED0B8F5041F18D10AE0CB6815E0CB6811
:100310001B1D12E0CB6808330FE0CB680C330CE0F8
:100320008B682BB1012B4FF0080303D0456104E02B
:10033000042302E0056100E00023FF2A01D80646FD
:1003400001E000F104064FEA840501D9A5F120057A
:10035000D6F8008007FA05FC28EA0C0803FA05F530
:1003600048EA0508C6F800804D68ED005BD5344DBD
:10037000AE6946F00106AE61AD6924F0030605F0F2
:10038000010500952F4D06EB050CDCF80850A6077B
:10039000360F07FA06F825EA0805DFF8AC80404575
:1003A00003D14FF0000810E03DE0DFF8A0804045A9
:1003B00002D14FF0010808E0DFF89480404502D1F7
:1003C0004FF0020801E04FF0030808FA06F848EA87
:1003D0000508CCF808804D68D9F80060ED034D465B
:1003E00001D5164300E096432E604D68DAF80060B0
:1003F000AD03554601D5164300E096432E604D6887
:10040000DBF80060ED025D4601D5164300E096433F
:100410002E604D68DEF80060AD02754601D51643CA
:1004200000E096432E60641C0A6832FA04F57FF4FB
:100430003FAFBDE8F88F000000040140000011103C
:10044000001002400000014000080140000C014083
:100450000010014001488068704700000000002043
:1004600002488168027811448160704700000020D2
:10047000074810B5016841F010010160032000F049
:1004800067F80F2000F006F800F024F8002010BDF7
:100490000020024070B50D4D04464FF47A71287863
:1004A000B1FBF0F00A490968B1FBF0F000F0BEFAC8
:1004B00048B9102C07D200222146501E00F028F81F
:1004C00000206C6070BD012070BD000000000020A5
:1004D0000C0000200C4808B5816941F001018161E0
:1004E000816901F001010091C16941F08051C16150
:1004F000C06900F0805000900448416821F0E0613C
:1005000041F00071416008BD001002400000014050
:10051000F0B40E4B1B680C46C3F30223C3F107056E
:10052000042D00D90425191D072901D2002300E05C
:10053000DB1E012606FA05F1491E214099409E4026
:10054000761E16403143F0BC00F011BD0CED00E00A
:10055000064900F0070208684FF6FF03184040EA1A
:100560000220034A10430860704700000CED00E0D1
:100570000000FA052DE9F0470F46050061D0434E13
:10058000306800F00700B84209D2306820F0070058
:1005900038433060306800F00700B84251D1286815
:1005A0003B4C810712D5400703D5606840F4E060FA
:1005B00060602878000703D5606840F46050606090
:1005C0006068A96820F0F000084360602878C007E0
:1005D00028D06868012810D02168022810D0890727
:1005E00000292EDA616821F0030101436160FFF701
:1005F00031FF804641F288390DE021688903EFE739
:100600008901EDE7FFF726FFA0EB0801494502D974
:100610000320BDE8F0876068696800F00C00B0EB6B
:10062000810FEFD1306800F00700B8420BD9306875
:1006300020F0070038433060306800F00700B8420F
:1006400001D00120E5E72878400705D56068E96812
:1006500020F4E060084360602878000706D56068F1
:10066000296920F4605040EAC100606000F018F889
:100670006168084AC1F30311515CC840064908602B
:1006800006480068FFF706FF0020C2E7002002408E
:1006900000100240C40F00080C00002004000020DD
:1006A00012A185B00FC98DE80F0014A0144A00688C
:1006B00004905168134801F00C03042B10D0082B50
:1006C0000ED1C1F38343C9031DF803000AD5516855
:1006D00004AAC1F34041515C0A4A5043B0FBF1F017
:1006E00005B0704708494843FAE7000002030405D3
:1006F000060708090A0B0C0D0E0F1010010200006E
:100700000010024000127A0000093D002DE9F84F68
:10071000040070D02078C04DC00749D06868C0F38D
:100720008100012807D06868C0F38100022809D140
:100730006868C00306D52868800339D5606800283A
:10074000E7D035E06068B0F5803F0BD010B1B0F570
:10075000A02F11D0286820F480302860286820F469
:10076000802002E0286840F480302860606890B102
:10077000FFF770FE06460AE0286840F480202860F3
:10078000F0E700BFFFF766FE801B642873D8286877
:100790008003F7D50CE0FFF75DFE064605E000BFDD
:1007A000FFF758FE801B6428F0D828688003F7D430
:1007B00020789A4E80074FF001094FF0000839D594
:1007C000686810F00C0F07D06868C0F38100022839
:1007D00009D16868C00306D42868800714D5206949
:1007E000012808D110E02069B0B1C6F80090FFF7E9
:1007F00031FE074605E00AE1FFF72CFEC01B022888
:10080000C4D828688007F7D52868616920F0F80007
:1008100040EAC10028600DE0C6F80080FFF71AFE2C
:10082000074604E0FFF716FEC01B022823D82868FD
:100830008007F7D4207800072CD57948A169D9B171
:10084000C0F80090FFF706FE074604E0FFF702FE3F
:10085000C01B02280FD8686A8007F7D571484FF48B
:10086000FA510068B0FBF1F0009000BF0098411E03
:100870000091FAD20EE080E0C0F80080FFF7EAFDB8
:10088000074604E0FFF7E6FDC01B022875D8686A3A
:100890008007F7D42078400760D5E8690027C000BA
:1008A00008D4E86940F08050E861E869012700F069
:1008B000805000905C480168C90513D401688346E4
:1008C00041F480710160FFF7C5FD824606E000BF7C
:1008D000FFF7C0FDA0EB0A0064284ED8DBF800004B
:1008E000C005F5D5E06801280AD008B1052813D065
:1008F000286A20F001002862286A20F0040002E043
:10090000286A40F001002862E06841F2883B98B113
:10091000FFF7A0FD82460BE0286A40F00400286241
:10092000EEE700BFFFF796FDA0EB0A0159455AD844
:10093000286A8007F6D50CE0FFF78CFD824605E0BB
:10094000FFF788FDA0EB0A0159454CD8286A8007BB
:10095000F6D41FB1E86920F08050E861E06988B3FF
:100960006968C1F38101022944D00228C6F8608079
:1009700004D0FFF76FFD044638E034E0FFF76AFD6E
:10098000074604E0FFF766FDC01B02282BD8286845
:100990008001F7D4206AB0F5803F05D16868A1686E
:1009A00020F4003008436860D4E90801084369680E
:1009B00021F4741108436860C6F86090FFF74AFD9F
:1009C000044606E025E000BFFFF744FD001B0228B7
:1009D00009D828688001F7D51BE000BFFFF73AFD72
:1009E000001B022802D90320BDE8F88F2868800187
:1009F000F4D40EE00128F7D06868226A00F4803150
:100A0000914204D1616A00F47010884201D0012043
:100A1000EAE70020E8E70000001002400000424240
:100A2000800442420C0000200070004010B5401EBF
:100A3000B0F1807F01D3012010BD4FF0E024606150
:100A40000F21601700F093FA0020A06107202061B9
:100A5000002010BD70B590F83C20012A23D001245D
:100A600080F83C40022280F83D2003685A689D6867
:100A700022F070060A6832435A600C4B02689A42B0
:100A800005D0B2F1804F02D0094B9A4204D1496897
:100A900025F080031943916080F83D40002180F8E3
:100AA0003C10084670BD022070BD0000002C0140C3
:100AB0000004004000B585B0002100910191029131
:100AC00003910068B0F1804F11D10A48816941F06B
:100AD000040181618069694600F0040004900120EE
:100AE00000900220019003900348FFF7D3FB05B06C
:100AF00000BD0000001002400008014070B504462F
:100B000090F83C000D4601280AD0012084F83C00F2
:100B100042B1042A18D0082A2AD00C2A4DD139E033
:100B2000022070BD206800F07FF92068816941F0E3
:100B3000080181612068816921F0040181612068D8
:100B400081692A69114311E0206800F095F9206855
:100B5000816941F4006181612068816921F48061CB
:100B60008161206881692A6941EA0221816124E06A
:100B7000206800F0ADF92068C16941F00801C16149
:100B80002068C16921F00401C1612068C1692A6936
:100B9000114311E0206800F0C7F92068C16941F4F1
:100BA0000061C1612068C16921F48061C161206870
:100BB000C1692A6941EA0221C161002084F83C0030
:100BC00070BD10B5040003D094F83D0010B107E0EB
:100BD000012010BD002084F83C00204600F01EF8E3
:100BE000022084F83D00211D206800F0E1F801207A
:100BF00084F8460084F83E0084F83F0084F8400002
:100C000084F8410084F8420084F8430084F84400EA
:100C100084F8450084F83D00002010BD08B5006848
:100C2000B0F1804F08D10548C16941F00101C161AF
:100C3000C06900F00100009008BD000000100240F3
:100C400010B50446022249B104290ED0082913D058
:100C500094F84100012816D0012010BD94F83E0000
:100C60000128F9D184F83E200FE094F83F000128D4
:100C7000F2D184F83F2008E094F840000128EBD13D
:100C800084F8402001E084F841200122206800F02F
:100C9000BDF80E492068884203D1426C42F40042FC
:100CA00042642068884205D0B0F1804F02D00849E4
:100CB000884204D1816801F00701062903D0016848
:100CC00041F001010160002010BD0000002C014036
:100CD00000040040FEE7000010B58AB0002407942D
:100CE0001C2168460894FFF76FFA17484FF08041BF
:100CF00001600F21C0E901144FF47A71C0E90314B7
:100D00008461FFF75EFF08B172B6FEE7079407A99A
:100D10000D480894FFF79EFE08B172B6FEE760200A
:100D2000009040F2EE20CDE9010400226946064819
:100D30000494FFF7E3FE08B172B6FEE70248FFF73E
:100D4000B9FE0AB010BD000010000020FEE7FEE76B
:100D500070477047FFF784BB30B58FB028216846D5
:100D6000FFF732FA14210AA8FFF72EFA0225012014
:100D700004900095102005900024C003CDE90840A0
:100D800007956846FFF7C2FC08B172B6FEE70F2070
:100D90000A90CDE90B540D9400210AA80E94FFF798
:100DA000E9FB002801D072B6FEE70FB030BD7047F6
:100DB00070B50268134B144C4FF08046984203D034
:100DC000B04201D0A04203D122F070054A682A4304
:100DD000984203D0B04201D0A04203D122F4407423
:100DE000CA6822434C6922F08002224302608A686A
:100DF000C2620A688262984201D1096901630121D5
:100E0000416170BD002C01400004004010B501F0AC
:100E10001F030121046A99408C430462016A9A40CD
:100E20001143016210BD000030B5026A22F00102D8
:100E30000262026A4368846924F073050C682C43DB
:100E400022F002058A682A430A4DA8420BD122F0FB
:100E50000805CA6823F440732A434D6922F004024E
:100E60001D438B692B43436084614968416302627F
:100E700030BD0000002C014030B5026A22F01002A3
:100E80000262026A436884690D6824F4E64444EA15
:100E900005248D6822F0200242EA05120B4DA8427B
:100EA0000ED1CD6822F0800242EA05124D6923F48A
:100EB000406343EA85038D6922F0400243EA8503DB
:100EC0004360846149688163026230BD002C014047
:100ED00030B5026A22F480720262036A4268C46911
:100EE00023F4007324F073050C682C438D6843EAE7
:100EF00005230C4DA8420ED1CD6823F4006343EACC
:100F000005234D6922F4405242EA05128D6923F40B
:100F1000806342EA05124260C4614968C1630362AA
:100F200030BD0000002C014030B5026A22F480522E
:100F30000262046A4268C3690D6823F4E64343EA27
:100F400005238D6824F4005444EA0534064DA84274
:100F500004D14D6922F4804242EA85124260C361A5
:100F600049680164046230BD002C0140FEE70907B6
:100F7000090E002804DB00F1E02080F8001470471F
:100F800000F00F0000F1E02080F8141D7047000011
:100F900008B5FFF76DFAFFF7DFFE0848816941F0F9
:100FA00004018161806900F004000090FFF794FE65
:100FB00000210348FFF744FEFEE700000010024056
:100FC00010000020000000000000000001020304E7
:100FD00006070809F40F00080000002010000000B8
:100FE000280100080410000810000020A8060000D6
:100FF0004401000801000000100000000000000093
:041000000024F400D4
:04000005080000ED02
:00000001FF
