:020000040800F2
:100000007006002089010008ED0A0008E90A0008CE
:10001000EB0A0008F3020008550B0008000000007E
:10002000000000000000000000000000F10A0008CD
:10003000F502000800000000EF0A0008F30A0008BB
:10004000A3010008A3010008A3010008A301000800
:10005000A3010008A3010008A3010008A3010008F0
:10006000A3010008A3010008A3010008A3010008E0
:10007000A3010008A3010008A3010008A3010008D0
:10008000A3010008A3010008A3010008A3010008C0
:10009000A3010008A3010008A3010008A3010008B0
:1000A000A3010008A3010008A3010008A3010008A0
:1000B000A3010008A301000800000000A30100083C
:1000C000A30100080000000000000000A3010008D8
:1000D00000000000A3010008A301000800000000C8
:1000E000A3010008A3010008A301000800F002F822
:1000F00000F03AF80AA090E8000C82448344AAF188
:100100000107DA4501D100F02FF8AFF2090EBAE885
:100110000F0013F0010F18BFFB1A43F0010318473B
:100120001C0B00003C0B0000103A24BF78C878C1BB
:10013000FAD8520724BF30C830C144BF04680C60ED
:10014000704700000023002400250026103A28BF35
:1001500078C1FBD8520728BF30C148BF0B60704739
:100160001FB51FBD10B510BD00F08AF81146FFF78E
:10017000F7FF00F001FD00F0A8F803B4FFF7F2FF6D
:1001800003BC00F0AFF80000094880470948004769
:10019000FEE7FEE7FEE7FEE7FEE7FEE7FEE7FEE737
:1001A000FEE7FEE704480549054A064B7047000094
:1001B000530B0008ED0000087000002070060020BE
:1001C000700200207002002010B5203AC0F00B80B1
:1001D000B1E81850203AA0E81850B1E81850A0E84B
:1001E0001850BFF4F5AF5FEA027C24BFB1E81850A5
:1001F000A0E8185044BF18C918C0BDE810405FEA15
:10020000827C24BF51F8043B40F8043B08BF704790
:10021000D20728BF31F8023B48BF11F8012B28BF95
:1002200020F8023B48BF00F8012B70474FF0000256
:1002300000B5134694469646203922BFA0E80C50DC
:10024000A0E80C50B1F12001BFF4F7AF090728BFB7
:10025000A0E80C5048BF0CC05DF804EB890028BF33
:1002600040F8042B08BF704748BF20F8022B11F05C
:10027000804F18BF00F8012B7047704770477047D8
:10028000754600F02BF8AE4605006946534620F04F
:100290000700854618B020B5FFF784FFBDE8204071
:1002A0004FF000064FF000074FF000084FF0000B32
:1002B00021F00701AC46ACE8C009ACE8C009ACE8E5
:1002C000C009ACE8C0098D46704710B50446AFF3CD
:1002D00000802046BDE81040FFF74FBF0048704740
:1002E0001000002001491820ABBEFEE726000200E6
:1002F0007047FEE77047000070B5044600F0F4F860
:100300000546601C02D004480078044400F0ECF874
:10031000401BA042FAD370BD000000202DE9F84F29
:10032000DFF89C91002409F1040A0AF1040B23462A
:100330000F270BF1040EBBE00125A5402A40AA427D
:1003400076D1DFF880C14E68A6EB0C0866452BD04D
:100350000DDC032E34D005DC36B3012E19D0022E6D
:100360002FD11BE0112E16D0122E2AD119E0B8F58C
:10037000881F19D006DCB8F5803F15D0B8F5801F6E
:100380001FD111E0B8F5001F0ED0B8F5041F18D129
:100390000AE0CB6815E0CB681B1D12E0CB68083380
:1003A0000FE0CB680C330CE08B682BB1012B4FF0C6
:1003B000080303D0456104E0042302E0056100E086
:1003C0000023FF2A01D8064601E000F104064FEAA7
:1003D000840501D9A5F12005D6F8008007FA05FCAF
:1003E00028EA0C0803FA05F548EA0508C6F8008073
:1003F0004D68ED005BD5344DAE6946F00106AE6147
:10040000AD6924F0030605F0010500952F4D06EBBC
:10041000050CDCF80850A607360F07FA06F825EA9F
:100420000805DFF8AC80404503D14FF0000810E02C
:100430003DE0DFF8A080404502D14FF0010808E020
:10044000DFF89480404502D14FF0020801E04FF000
:10045000030808FA06F848EA0508CCF808804D6851
:10046000D9F80060ED034D4601D5164300E09643F0
:100470002E604D68DAF80060AD03554601D516438D
:1004800000E096432E604D68DBF80060ED025D46AB
:1004900001D5164300E096432E604D68DEF80060FB
:1004A000AD02754601D5164300E096432E60641CEC
:1004B0000A6832FA04F57FF43FAFBDE8F88F000018
:1004C0000004014000001110001002400000014033
:1004D00000080140000C0140001001400AB1016118
:1004E00070470904FBE7000001488068704700007E
:1004F0000000002002488168027811448160704742
:1005000000000020074810B5016841F010010160AB
:10051000032000F067F80F2000F006F800F024F840
:10052000002010BD0020024070B50D4D04464FF470
:100530007A712878B1FBF0F00A490968B1FBF0F054
:1005400000F0BEFA48B9102C07D200222146501EF6
:1005500000F028F800206C6070BD012070BD000024
:10056000000000200C0000200C4808B5816941F013
:1005700001018161816901F001010091C16941F0CE
:100580008051C161C06900F080500090044841680A
:1005900021F0E06141F00071416008BD00100240AF
:1005A00000000140F0B40E4B1B680C46C3F302235D
:1005B000C3F10705042D00D90425191D072901D20F
:1005C000002300E0DB1E012606FA05F1491E21404A
:1005D00099409E40761E16403143F0BC00F0BBBAF5
:1005E0000CED00E0064900F0070208684FF6FF0333
:1005F000184040EA0220034A104308607047000098
:100600000CED00E00000FA052DE9F0470F4605006B
:1006100061D0434E306800F00700B84209D230681C
:1006200020F0070038433060306800F00700B8421F
:1006300051D128683B4C810712D5400703D560682B
:1006400040F4E06060602878000703D5606840F4FB
:10065000605060606068A96820F0F0000843606046
:100660002878C00728D06868012810D0216802289F
:1006700010D0890700292EDA616821F003010143B7
:100680006160FFF731FF804641F288390DE0216853
:100690008903EFE78901EDE7FFF726FFA0EB0801EB
:1006A000494502D90320BDE8F0876068696800F019
:1006B0000C00B0EB810FEFD1306800F00700B842BA
:1006C0000BD9306820F0070038433060306800F004
:1006D0000700B84201D00120E5E72878400705D59A
:1006E0006068E96820F4E0600843606028780007EB
:1006F00006D56068296920F4605040EAC100606056
:1007000000F018F86168084AC1F30311515CC84051
:100710000649086006480068FFF706FF0020C2E7A8
:1007200000200240001002402C0C00080C000020A9
:100730000400002012A185B00FC98DE80F0014A09D
:10074000144A006804905168134801F00C03042B0C
:1007500010D0082B0ED1C1F38343C9031DF8030049
:100760000AD5516804AAC1F34041515C0A4A50437A
:10077000B0FBF1F005B0704708494843FAE70000C4
:1007800002030405060708090A0B0C0D0E0F1010D2
:10079000010200000010024000127A0000093D0032
:1007A0002DE9F84F040070D02078C04DC00749D023
:1007B0006868C0F38100012807D06868C0F3810031
:1007C000022809D16868C00306D52868800339D596
:1007D00060680028E7D035E06068B0F5803F0BD056
:1007E00010B1B0F5A02F11D0286820F48030286017
:1007F000286820F4802002E0286840F480302860D7
:10080000606890B1FFF770FE06460AE0286840F481
:1008100080202860F0E700BFFFF766FE801B642899
:1008200073D828688003F7D50CE0FFF75DFE064615
:1008300005E000BFFFF758FE801B6428F0D8286849
:100840008003F7D420789A4E80074FF001094FF0CB
:10085000000839D5686810F00C0F07D06868C0F33D
:100860008100022809D16868C00306D4286880077F
:1008700014D52069012808D110E02069B0B1C6F86C
:100880000090FFF731FE074605E00AE1FFF72CFE76
:10089000C01B0228C4D828688007F7D5286861697A
:1008A00020F0F80040EAC10028600DE0C6F80080A2
:1008B000FFF71AFE074604E0FFF716FEC01B0228EA
:1008C00023D828688007F7D4207800072CD57948EA
:1008D000A169D9B1C0F80090FFF706FE074604E011
:1008E000FFF702FEC01B02280FD8686A8007F7D501
:1008F00071484FF4FA510068B0FBF1F0009000BF6E
:100900000098411E0091FAD20EE080E0C0F800800D
:10091000FFF7EAFD074604E0FFF7E6FDC01B0228EB
:1009200075D8686A8007F7D42078400760D5E869F1
:100930000027C00008D4E86940F08050E861E86909
:10094000012700F0805000905C480168C90513D46D
:100950000168834641F480710160FFF7C5FD82465E
:1009600006E000BFFFF7C0FDA0EB0A0064284ED8E8
:10097000DBF80000C005F5D5E06801280AD008B111
:10098000052813D0286A20F001002862286A20F088
:10099000040002E0286A40F001002862E06841F2A9
:1009A000883B98B1FFF7A0FD82460BE0286A40F033
:1009B00004002862EEE700BFFFF796FDA0EB0A01F6
:1009C00059455AD8286A8007F6D50CE0FFF78CFD08
:1009D000824605E0FFF788FDA0EB0A0159454CD897
:1009E000286A8007F6D41FB1E86920F08050E861DA
:1009F000E06988B36968C1F38101022944D0022803
:100A0000C6F8608004D0FFF76FFD044638E034E09C
:100A1000FFF76AFD074604E0FFF766FDC01B0228EA
:100A20002BD828688001F7D4206AB0F5803F05D123
:100A30006868A16820F4003008436860D4E90801C0
:100A40000843696821F4741108436860C6F860902F
:100A5000FFF74AFD044606E025E000BFFFF744FD2E
:100A6000001B022809D828688001F7D51BE000BFC9
:100A7000FFF73AFD001B022802D90320BDE8F88FDA
:100A800028688001F4D40EE00128F7D06868226A53
:100A900000F48031914204D1616A00F47010884200
:100AA00001D00120EAE70020E8E700000010024042
:100AB00000004242800442420C00002000700040CE
:100AC00010B5401EB0F1807F01D3012010BD4FF062
:100AD000E02460610F21601700F03DF80020A06164
:100AE00007202061002010BDFEE7FEE7FEE770470B
:100AF0007047FFF7FFBC30B58FB028216846FFF77D
:100B000095FB14210AA8FFF791FB02250120049010
:100B100000951020059000244FF46010CDE90840A6
:100B200007956846FFF73CFE08B172B6FEE70F2056
:100B3000CDE90A054FF48060CDE90C4002210AA8F6
:100B40000E94FFF761FD002801D072B6FEE70FB0EA
:100B500030BD7047FEE70907090E002804DB00F1ED
:100B6000E02080F80014704700F00F0000F1E02052
:100B700080F8141D7047000090B0FFF7C3FCFFF72A
:100B8000BAFF00241C480A940B940C940D948169BC
:100B900041F0040181618069184D00F004000E905D
:100BA00022467F212846FFF799FC7F200A900120EA
:100BB000CDE90B0402200D900AA92846FFF7AEFBF1
:100BC00028220F496846FFF7FFFA0C4E6D46103693
:100BD0004FF47A78371D002455F824004010306017
:100BE0004046FFF789FB55F8240040103860641C2C
:100BF0000A2CF1DBEFE70000001002400008014082
:100C0000040C00087E0000000C000000B60000008C
:100C10009E000000CC000000DA000000F800000098
:100C20000E000000FF000000DF00000000000000D8
:100C30000000000001020304060708095C0C00081C
:100C40000000002010000000280100086C0C0008C3
:100C500010000020600600004401000801000000B0
:0C0C600010000000000000000024F40060
:04000005080000ED02
:00000001FF
